{
    "_format": "hh-sol-artifact-1",
    "contractName": "NFT",
    "sourceName": "contracts/NFT.sol",
    "abi": [
        {
            "inputs": [],
            "stateMutability": "nonpayable",
            "type": "constructor"
        },
        {
            "anonymous": false,
            "inputs": [
                {
                    "indexed": true,
                    "internalType": "address",
                    "name": "owner",
                    "type": "address"
                },
                {
                    "indexed": true,
                    "internalType": "address",
                    "name": "approved",
                    "type": "address"
                },
                {
                    "indexed": true,
                    "internalType": "uint256",
                    "name": "tokenId",
                    "type": "uint256"
                }
            ],
            "name": "Approval",
            "type": "event"
        },
        {
            "anonymous": false,
            "inputs": [
                {
                    "indexed": true,
                    "internalType": "address",
                    "name": "owner",
                    "type": "address"
                },
                {
                    "indexed": true,
                    "internalType": "address",
                    "name": "operator",
                    "type": "address"
                },
                {
                    "indexed": false,
                    "internalType": "bool",
                    "name": "approved",
                    "type": "bool"
                }
            ],
            "name": "ApprovalForAll",
            "type": "event"
        },
        {
            "anonymous": false,
            "inputs": [
                {
                    "indexed": false,
                    "internalType": "address",
                    "name": "owner",
                    "type": "address"
                },
                {
                    "indexed": false,
                    "internalType": "uint256",
                    "name": "price",
                    "type": "uint256"
                },
                {
                    "indexed": false,
                    "internalType": "uint256",
                    "name": "id",
                    "type": "uint256"
                },
                {
                    "indexed": false,
                    "internalType": "string",
                    "name": "uri",
                    "type": "string"
                }
            ],
            "name": "Purchase",
            "type": "event"
        },
        {
            "anonymous": false,
            "inputs": [
                {
                    "indexed": true,
                    "internalType": "address",
                    "name": "from",
                    "type": "address"
                },
                {
                    "indexed": true,
                    "internalType": "address",
                    "name": "to",
                    "type": "address"
                },
                {
                    "indexed": true,
                    "internalType": "uint256",
                    "name": "tokenId",
                    "type": "uint256"
                }
            ],
            "name": "Transfer",
            "type": "event"
        },
        {
            "inputs": [],
            "name": "_owner",
            "outputs": [
                {
                    "internalType": "address payable",
                    "name": "",
                    "type": "address"
                }
            ],
            "stateMutability": "view",
            "type": "function"
        },
        {
            "inputs": [
                {
                    "internalType": "address",
                    "name": "to",
                    "type": "address"
                },
                {
                    "internalType": "uint256",
                    "name": "tokenId",
                    "type": "uint256"
                }
            ],
            "name": "approve",
            "outputs": [],
            "stateMutability": "nonpayable",
            "type": "function"
        },
        {
            "inputs": [
                {
                    "internalType": "address",
                    "name": "owner",
                    "type": "address"
                }
            ],
            "name": "balanceOf",
            "outputs": [
                {
                    "internalType": "uint256",
                    "name": "",
                    "type": "uint256"
                }
            ],
            "stateMutability": "view",
            "type": "function"
        },
        {
            "inputs": [
                {
                    "internalType": "uint256",
                    "name": "_id",
                    "type": "uint256"
                }
            ],
            "name": "buy",
            "outputs": [],
            "stateMutability": "payable",
            "type": "function"
        },
        {
            "inputs": [
                {
                    "internalType": "string",
                    "name": "tokenURI",
                    "type": "string"
                }
            ],
            "name": "createToken",
            "outputs": [
                {
                    "internalType": "uint256",
                    "name": "",
                    "type": "uint256"
                }
            ],
            "stateMutability": "nonpayable",
            "type": "function"
        },
        {
            "inputs": [
                {
                    "internalType": "uint256",
                    "name": "tokenId",
                    "type": "uint256"
                }
            ],
            "name": "getApproved",
            "outputs": [
                {
                    "internalType": "address",
                    "name": "",
                    "type": "address"
                }
            ],
            "stateMutability": "view",
            "type": "function"
        },
        {
            "inputs": [
                {
                    "internalType": "uint256",
                    "name": "id",
                    "type": "uint256"
                }
            ],
            "name": "getNFTOwner",
            "outputs": [
                {
                    "internalType": "address",
                    "name": "",
                    "type": "address"
                }
            ],
            "stateMutability": "view",
            "type": "function"
        },
        {
            "inputs": [
                {
                    "internalType": "address",
                    "name": "owner",
                    "type": "address"
                },
                {
                    "internalType": "address",
                    "name": "operator",
                    "type": "address"
                }
            ],
            "name": "isApprovedForAll",
            "outputs": [
                {
                    "internalType": "bool",
                    "name": "",
                    "type": "bool"
                }
            ],
            "stateMutability": "view",
            "type": "function"
        },
        {
            "inputs": [],
            "name": "name",
            "outputs": [
                {
                    "internalType": "string",
                    "name": "",
                    "type": "string"
                }
            ],
            "stateMutability": "view",
            "type": "function"
        },
        {
            "inputs": [
                {
                    "internalType": "uint256",
                    "name": "tokenId",
                    "type": "uint256"
                }
            ],
            "name": "ownerOf",
            "outputs": [
                {
                    "internalType": "address",
                    "name": "",
                    "type": "address"
                }
            ],
            "stateMutability": "view",
            "type": "function"
        },
        {
            "inputs": [
                {
                    "internalType": "uint256",
                    "name": "",
                    "type": "uint256"
                }
            ],
            "name": "price",
            "outputs": [
                {
                    "internalType": "uint256",
                    "name": "",
                    "type": "uint256"
                }
            ],
            "stateMutability": "view",
            "type": "function"
        },
        {
            "inputs": [
                {
                    "internalType": "address",
                    "name": "from",
                    "type": "address"
                },
                {
                    "internalType": "address",
                    "name": "to",
                    "type": "address"
                },
                {
                    "internalType": "uint256",
                    "name": "tokenId",
                    "type": "uint256"
                }
            ],
            "name": "safeTransferFrom",
            "outputs": [],
            "stateMutability": "nonpayable",
            "type": "function"
        },
        {
            "inputs": [
                {
                    "internalType": "address",
                    "name": "from",
                    "type": "address"
                },
                {
                    "internalType": "address",
                    "name": "to",
                    "type": "address"
                },
                {
                    "internalType": "uint256",
                    "name": "tokenId",
                    "type": "uint256"
                },
                {
                    "internalType": "bytes",
                    "name": "_data",
                    "type": "bytes"
                }
            ],
            "name": "safeTransferFrom",
            "outputs": [],
            "stateMutability": "nonpayable",
            "type": "function"
        },
        {
            "inputs": [
                {
                    "internalType": "address",
                    "name": "operator",
                    "type": "address"
                },
                {
                    "internalType": "bool",
                    "name": "approved",
                    "type": "bool"
                }
            ],
            "name": "setApprovalForAll",
            "outputs": [],
            "stateMutability": "nonpayable",
            "type": "function"
        },
        {
            "inputs": [
                {
                    "internalType": "uint256",
                    "name": "",
                    "type": "uint256"
                }
            ],
            "name": "sold",
            "outputs": [
                {
                    "internalType": "bool",
                    "name": "",
                    "type": "bool"
                }
            ],
            "stateMutability": "view",
            "type": "function"
        },
        {
            "inputs": [
                {
                    "internalType": "bytes4",
                    "name": "interfaceId",
                    "type": "bytes4"
                }
            ],
            "name": "supportsInterface",
            "outputs": [
                {
                    "internalType": "bool",
                    "name": "",
                    "type": "bool"
                }
            ],
            "stateMutability": "view",
            "type": "function"
        },
        {
            "inputs": [],
            "name": "symbol",
            "outputs": [
                {
                    "internalType": "string",
                    "name": "",
                    "type": "string"
                }
            ],
            "stateMutability": "view",
            "type": "function"
        },
        {
            "inputs": [
                {
                    "internalType": "uint256",
                    "name": "tokenId",
                    "type": "uint256"
                }
            ],
            "name": "tokenURI",
            "outputs": [
                {
                    "internalType": "string",
                    "name": "",
                    "type": "string"
                }
            ],
            "stateMutability": "view",
            "type": "function"
        },
        {
            "inputs": [
                {
                    "internalType": "address",
                    "name": "from",
                    "type": "address"
                },
                {
                    "internalType": "address",
                    "name": "to",
                    "type": "address"
                },
                {
                    "internalType": "uint256",
                    "name": "tokenId",
                    "type": "uint256"
                }
            ],
            "name": "transferFrom",
            "outputs": [],
            "stateMutability": "nonpayable",
            "type": "function"
        }
    ],
    "bytecode": "0x60806040523480156200001157600080fd5b506040518060400160405280600981526020017f4d657461766572736500000000000000000000000000000000000000000000008152506040518060400160405280600481526020017f4d45545400000000000000000000000000000000000000000000000000000000815250816000908051906020019062000096929190620000f9565b508060019080519060200190620000af929190620000f9565b50505033600860006101000a81548173ffffffffffffffffffffffffffffffffffffffff021916908373ffffffffffffffffffffffffffffffffffffffff1602179055506200020e565b8280546200010790620001a9565b90600052602060002090601f0160209004810192826200012b576000855562000177565b82601f106200014657805160ff191683800117855562000177565b8280016001018555821562000177579182015b828111156200017657825182559160200191906001019062000159565b5b5090506200018691906200018a565b5090565b5b80821115620001a55760008160009055506001016200018b565b5090565b60006002820490506001821680620001c257607f821691505b60208210811415620001d957620001d8620001df565b5b50919050565b7f4e487b7100000000000000000000000000000000000000000000000000000000600052602260045260246000fd5b6131b2806200021e6000396000f3fe6080604052600436106101145760003560e01c806370a08231116100a0578063b88d4fde11610064578063b88d4fde146103e9578063c87b56dd14610412578063d96a094a1461044f578063deaea2e31461046b578063e985e9c5146104a857610114565b806370a08231146102f057806395d89b411461032d5780639c03facb14610358578063a22cb46514610395578063b2bdfa7b146103be57610114565b806323b872dd116100e757806323b872dd146101e757806326a49e371461021057806342842e0e1461024d57806345576f94146102765780636352211e146102b357610114565b806301ffc9a71461011957806306fdde0314610156578063081812fc14610181578063095ea7b3146101be575b600080fd5b34801561012557600080fd5b50610140600480360381019061013b9190612052565b6104e5565b60405161014d9190612578565b60405180910390f35b34801561016257600080fd5b5061016b6105c7565b6040516101789190612593565b60405180910390f35b34801561018d57600080fd5b506101a860048036038101906101a391906120e5565b610659565b6040516101b591906124aa565b60405180910390f35b3480156101ca57600080fd5b506101e560048036038101906101e09190612016565b6106de565b005b3480156101f357600080fd5b5061020e60048036038101906102099190611f10565b6107f6565b005b34801561021c57600080fd5b50610237600480360381019061023291906120e5565b610856565b6040516102449190612815565b60405180910390f35b34801561025957600080fd5b50610274600480360381019061026f9190611f10565b61086e565b005b34801561028257600080fd5b5061029d600480360381019061029891906120a4565b61088e565b6040516102aa9190612815565b60405180910390f35b3480156102bf57600080fd5b506102da60048036038101906102d591906120e5565b6108c5565b6040516102e791906124aa565b60405180910390f35b3480156102fc57600080fd5b5061031760048036038101906103129190611eab565b610977565b6040516103249190612815565b60405180910390f35b34801561033957600080fd5b50610342610a2f565b60405161034f9190612593565b60405180910390f35b34801561036457600080fd5b5061037f600480360381019061037a91906120e5565b610ac1565b60405161038c9190612578565b60405180910390f35b3480156103a157600080fd5b506103bc60048036038101906103b79190611fda565b610ae1565b005b3480156103ca57600080fd5b506103d3610af7565b6040516103e091906124c5565b60405180910390f35b3480156103f557600080fd5b50610410600480360381019061040b9190611f5f565b610b1d565b005b34801561041e57600080fd5b50610439600480360381019061043491906120e5565b610b7f565b6040516104469190612593565b60405180910390f35b610469600480360381019061046491906120e5565b610cd1565b005b34801561047757600080fd5b50610492600480360381019061048d91906120e5565b610d3e565b60405161049f91906124aa565b60405180910390f35b3480156104b457600080fd5b506104cf60048036038101906104ca9190611ed4565b610d50565b6040516104dc9190612578565b60405180910390f35b60007f80ac58cd000000000000000000000000000000000000000000000000000000007bffffffffffffffffffffffffffffffffffffffffffffffffffffffff1916827bffffffffffffffffffffffffffffffffffffffffffffffffffffffff191614806105b057507f5b5e139f000000000000000000000000000000000000000000000000000000007bffffffffffffffffffffffffffffffffffffffffffffffffffffffff1916827bffffffffffffffffffffffffffffffffffffffffffffffffffffffff1916145b806105c057506105bf82610de4565b5b9050919050565b6060600080546105d690612a7d565b80601f016020809104026020016040519081016040528092919081815260200182805461060290612a7d565b801561064f5780601f106106245761010080835404028352916020019161064f565b820191906000526020600020905b81548152906001019060200180831161063257829003601f168201915b5050505050905090565b600061066482610e4e565b6106a3576040517f08c379a000000000000000000000000000000000000000000000000000000000815260040161069a90612775565b60405180910390fd5b6004600083815260200190815260200160002060009054906101000a900473ffffffffffffffffffffffffffffffffffffffff169050919050565b60006106e9826108c5565b90508073ffffffffffffffffffffffffffffffffffffffff168373ffffffffffffffffffffffffffffffffffffffff16141561075a576040517f08c379a0000000000000000000000000000000000000000000000000000000008152600401610751906127b5565b60405180910390fd5b8073ffffffffffffffffffffffffffffffffffffffff16610779610eba565b73ffffffffffffffffffffffffffffffffffffffff1614806107a857506107a7816107a2610eba565b610d50565b5b6107e7576040517f08c379a00000000000000000000000000000000000000000000000000000000081526004016107de906126b5565b60405180910390fd5b6107f18383610ec2565b505050565b610807610801610eba565b82610f7b565b610846576040517f08c379a000000000000000000000000000000000000000000000000000000000815260040161083d906127f5565b60405180910390fd5b610851838383611059565b505050565b600a6020528060005260406000206000915090505481565b61088983838360405180602001604052806000815250610b1d565b505050565b600061089a60076112c0565b60006108a660076112d6565b90506108b233826112e4565b6108bc81846114be565b80915050919050565b6000806002600084815260200190815260200160002060009054906101000a900473ffffffffffffffffffffffffffffffffffffffff169050600073ffffffffffffffffffffffffffffffffffffffff168173ffffffffffffffffffffffffffffffffffffffff16141561096e576040517f08c379a0000000000000000000000000000000000000000000000000000000008152600401610965906126f5565b60405180910390fd5b80915050919050565b60008073ffffffffffffffffffffffffffffffffffffffff168273ffffffffffffffffffffffffffffffffffffffff1614156109e8576040517f08c379a00000000000000000000000000000000000000000000000000000000081526004016109df906126d5565b60405180910390fd5b600360008373ffffffffffffffffffffffffffffffffffffffff1673ffffffffffffffffffffffffffffffffffffffff168152602001908152602001600020549050919050565b606060018054610a3e90612a7d565b80601f0160208091040260200160405190810160405280929190818152602001828054610a6a90612a7d565b8015610ab75780601f10610a8c57610100808354040283529160200191610ab7565b820191906000526020600020905b815481529060010190602001808311610a9a57829003601f168201915b5050505050905090565b60096020528060005260406000206000915054906101000a900460ff1681565b610af3610aec610eba565b8383611532565b5050565b600860009054906101000a900473ffffffffffffffffffffffffffffffffffffffff1681565b610b2e610b28610eba565b83610f7b565b610b6d576040517f08c379a0000000000000000000000000000000000000000000000000000000008152600401610b64906127f5565b60405180910390fd5b610b798484848461169f565b50505050565b6060610b8a82610e4e565b610bc9576040517f08c379a0000000000000000000000000000000000000000000000000000000008152600401610bc090612755565b60405180910390fd5b6000600660008481526020019081526020016000208054610be990612a7d565b80601f0160208091040260200160405190810160405280929190818152602001828054610c1590612a7d565b8015610c625780601f10610c3757610100808354040283529160200191610c62565b820191906000526020600020905b815481529060010190602001808311610c4557829003601f168201915b505050505090506000610c736116fb565b9050600081511415610c89578192505050610ccc565b600082511115610cbe578082604051602001610ca6929190612486565b60405160208183030381529060405292505050610ccc565b610cc784611712565b925050505b919050565b610cda816117b9565b610ce3816118bb565b7f6d5507734d4d9e8592119c9e6b3e2bf7eab8bd6252f36e2fa05a5588442479da33600a60008481526020019081526020016000205483610d2385610b7f565b604051610d33949392919061252c565b60405180910390a150565b6000610d49826108c5565b9050919050565b6000600560008473ffffffffffffffffffffffffffffffffffffffff1673ffffffffffffffffffffffffffffffffffffffff16815260200190815260200160002060008373ffffffffffffffffffffffffffffffffffffffff1673ffffffffffffffffffffffffffffffffffffffff16815260200190815260200160002060009054906101000a900460ff16905092915050565b60007f01ffc9a7000000000000000000000000000000000000000000000000000000007bffffffffffffffffffffffffffffffffffffffffffffffffffffffff1916827bffffffffffffffffffffffffffffffffffffffffffffffffffffffff1916149050919050565b60008073ffffffffffffffffffffffffffffffffffffffff166002600084815260200190815260200160002060009054906101000a900473ffffffffffffffffffffffffffffffffffffffff1673ffffffffffffffffffffffffffffffffffffffff1614159050919050565b600033905090565b816004600083815260200190815260200160002060006101000a81548173ffffffffffffffffffffffffffffffffffffffff021916908373ffffffffffffffffffffffffffffffffffffffff160217905550808273ffffffffffffffffffffffffffffffffffffffff16610f35836108c5565b73ffffffffffffffffffffffffffffffffffffffff167f8c5be1e5ebec7d5bd14f71427d1e84f3dd0314c0f7b2291e5b200ac8c7c3b92560405160405180910390a45050565b6000610f8682610e4e565b610fc5576040517f08c379a0000000000000000000000000000000000000000000000000000000008152600401610fbc90612655565b60405180910390fd5b6000610fd0836108c5565b90508073ffffffffffffffffffffffffffffffffffffffff168473ffffffffffffffffffffffffffffffffffffffff16148061103f57508373ffffffffffffffffffffffffffffffffffffffff1661102784610659565b73ffffffffffffffffffffffffffffffffffffffff16145b80611050575061104f8185610d50565b5b91505092915050565b8273ffffffffffffffffffffffffffffffffffffffff16611079826108c5565b73ffffffffffffffffffffffffffffffffffffffff16146110cf576040517f08c379a00000000000000000000000000000000000000000000000000000000081526004016110c6906125d5565b60405180910390fd5b600073ffffffffffffffffffffffffffffffffffffffff168273ffffffffffffffffffffffffffffffffffffffff16141561113f576040517f08c379a000000000000000000000000000000000000000000000000000000000815260040161113690612615565b60405180910390fd5b61114a83838361195e565b611155600082610ec2565b6001600360008573ffffffffffffffffffffffffffffffffffffffff1673ffffffffffffffffffffffffffffffffffffffff16815260200190815260200160002060008282546111a59190612981565b925050819055506001600360008473ffffffffffffffffffffffffffffffffffffffff1673ffffffffffffffffffffffffffffffffffffffff16815260200190815260200160002060008282546111fc91906128fa565b92505081905550816002600083815260200190815260200160002060006101000a81548173ffffffffffffffffffffffffffffffffffffffff021916908373ffffffffffffffffffffffffffffffffffffffff160217905550808273ffffffffffffffffffffffffffffffffffffffff168473ffffffffffffffffffffffffffffffffffffffff167fddf252ad1be2c89b69c2b068fc378daa952ba7f163c4a11628f55a4df523b3ef60405160405180910390a46112bb838383611963565b505050565b6001816000016000828254019250508190555050565b600081600001549050919050565b600073ffffffffffffffffffffffffffffffffffffffff168273ffffffffffffffffffffffffffffffffffffffff161415611354576040517f08c379a000000000000000000000000000000000000000000000000000000000815260040161134b90612735565b60405180910390fd5b61135d81610e4e565b1561139d576040517f08c379a0000000000000000000000000000000000000000000000000000000008152600401611394906125f5565b60405180910390fd5b6113a96000838361195e565b6001600360008473ffffffffffffffffffffffffffffffffffffffff1673ffffffffffffffffffffffffffffffffffffffff16815260200190815260200160002060008282546113f991906128fa565b92505081905550816002600083815260200190815260200160002060006101000a81548173ffffffffffffffffffffffffffffffffffffffff021916908373ffffffffffffffffffffffffffffffffffffffff160217905550808273ffffffffffffffffffffffffffffffffffffffff16600073ffffffffffffffffffffffffffffffffffffffff167fddf252ad1be2c89b69c2b068fc378daa952ba7f163c4a11628f55a4df523b3ef60405160405180910390a46114ba60008383611963565b5050565b6114c782610e4e565b611506576040517f08c379a00000000000000000000000000000000000000000000000000000000081526004016114fd90612715565b60405180910390fd5b8060066000848152602001908152602001600020908051906020019061152d929190611ccf565b505050565b8173ffffffffffffffffffffffffffffffffffffffff168373ffffffffffffffffffffffffffffffffffffffff1614156115a1576040517f08c379a000000000000000000000000000000000000000000000000000000000815260040161159890612635565b60405180910390fd5b80600560008573ffffffffffffffffffffffffffffffffffffffff1673ffffffffffffffffffffffffffffffffffffffff16815260200190815260200160002060008473ffffffffffffffffffffffffffffffffffffffff1673ffffffffffffffffffffffffffffffffffffffff16815260200190815260200160002060006101000a81548160ff0219169083151502179055508173ffffffffffffffffffffffffffffffffffffffff168373ffffffffffffffffffffffffffffffffffffffff167f17307eab39ab6107e8899845ad3d59bd9653f200f220920489ca2b5937696c31836040516116929190612578565b60405180910390a3505050565b6116aa848484611059565b6116b684848484611968565b6116f5576040517f08c379a00000000000000000000000000000000000000000000000000000000081526004016116ec906125b5565b60405180910390fd5b50505050565b606060405180602001604052806000815250905090565b606061171d82610e4e565b61175c576040517f08c379a000000000000000000000000000000000000000000000000000000000815260040161175390612795565b60405180910390fd5b60006117666116fb565b9050600081511161178657604051806020016040528060008152506117b1565b8061179084611aff565b6040516020016117a1929190612486565b6040516020818303038152906040525b915050919050565b6117c281610e4e565b611801576040517f08c379a00000000000000000000000000000000000000000000000000000000081526004016117f890612675565b60405180910390fd5b6009600082815260200190815260200160002060009054906101000a900460ff1615611862576040517f08c379a0000000000000000000000000000000000000000000000000000000008152600401611859906127d5565b60405180910390fd5b600a6000828152602001908152602001600020543410156118b8576040517f08c379a00000000000000000000000000000000000000000000000000000000081526004016118af90612695565b60405180910390fd5b50565b6118c6303383611059565b600860009054906101000a900473ffffffffffffffffffffffffffffffffffffffff1673ffffffffffffffffffffffffffffffffffffffff166108fc349081150290604051600060405180830381858888f1935050505015801561192e573d6000803e3d6000fd5b5060016009600083815260200190815260200160002060006101000a81548160ff02191690831515021790555050565b505050565b505050565b60006119898473ffffffffffffffffffffffffffffffffffffffff16611cac565b15611af2578373ffffffffffffffffffffffffffffffffffffffff1663150b7a026119b2610eba565b8786866040518563ffffffff1660e01b81526004016119d494939291906124e0565b602060405180830381600087803b1580156119ee57600080fd5b505af1925050508015611a1f57506040513d601f19601f82011682018060405250810190611a1c919061207b565b60015b611aa2573d8060008114611a4f576040519150601f19603f3d011682016040523d82523d6000602084013e611a54565b606091505b50600081511415611a9a576040517f08c379a0000000000000000000000000000000000000000000000000000000008152600401611a91906125b5565b60405180910390fd5b805181602001fd5b63150b7a0260e01b7bffffffffffffffffffffffffffffffffffffffffffffffffffffffff1916817bffffffffffffffffffffffffffffffffffffffffffffffffffffffff191614915050611af7565b600190505b949350505050565b60606000821415611b47576040518060400160405280600181526020017f30000000000000000000000000000000000000000000000000000000000000008152509050611ca7565b600082905060005b60008214611b79578080611b6290612ae0565b915050600a82611b729190612950565b9150611b4f565b60008167ffffffffffffffff811115611bbb577f4e487b7100000000000000000000000000000000000000000000000000000000600052604160045260246000fd5b6040519080825280601f01601f191660200182016040528015611bed5781602001600182028036833780820191505090505b5090505b60008514611ca057600182611c069190612981565b9150600a85611c159190612b29565b6030611c2191906128fa565b60f81b818381518110611c5d577f4e487b7100000000000000000000000000000000000000000000000000000000600052603260045260246000fd5b60200101907effffffffffffffffffffffffffffffffffffffffffffffffffffffffffffff1916908160001a905350600a85611c999190612950565b9450611bf1565b8093505050505b919050565b6000808273ffffffffffffffffffffffffffffffffffffffff163b119050919050565b828054611cdb90612a7d565b90600052602060002090601f016020900481019282611cfd5760008555611d44565b82601f10611d1657805160ff1916838001178555611d44565b82800160010185558215611d44579182015b82811115611d43578251825591602001919060010190611d28565b5b509050611d519190611d55565b5090565b5b80821115611d6e576000816000905550600101611d56565b5090565b6000611d85611d8084612855565b612830565b905082815260208101848484011115611d9d57600080fd5b611da8848285612a3b565b509392505050565b6000611dc3611dbe84612886565b612830565b905082815260208101848484011115611ddb57600080fd5b611de6848285612a3b565b509392505050565b600081359050611dfd81613120565b92915050565b600081359050611e1281613137565b92915050565b600081359050611e278161314e565b92915050565b600081519050611e3c8161314e565b92915050565b600082601f830112611e5357600080fd5b8135611e63848260208601611d72565b91505092915050565b600082601f830112611e7d57600080fd5b8135611e8d848260208601611db0565b91505092915050565b600081359050611ea581613165565b92915050565b600060208284031215611ebd57600080fd5b6000611ecb84828501611dee565b91505092915050565b60008060408385031215611ee757600080fd5b6000611ef585828601611dee565b9250506020611f0685828601611dee565b9150509250929050565b600080600060608486031215611f2557600080fd5b6000611f3386828701611dee565b9350506020611f4486828701611dee565b9250506040611f5586828701611e96565b9150509250925092565b60008060008060808587031215611f7557600080fd5b6000611f8387828801611dee565b9450506020611f9487828801611dee565b9350506040611fa587828801611e96565b925050606085013567ffffffffffffffff811115611fc257600080fd5b611fce87828801611e42565b91505092959194509250565b60008060408385031215611fed57600080fd5b6000611ffb85828601611dee565b925050602061200c85828601611e03565b9150509250929050565b6000806040838503121561202957600080fd5b600061203785828601611dee565b925050602061204885828601611e96565b9150509250929050565b60006020828403121561206457600080fd5b600061207284828501611e18565b91505092915050565b60006020828403121561208d57600080fd5b600061209b84828501611e2d565b91505092915050565b6000602082840312156120b657600080fd5b600082013567ffffffffffffffff8111156120d057600080fd5b6120dc84828501611e6c565b91505092915050565b6000602082840312156120f757600080fd5b600061210584828501611e96565b91505092915050565b612117816129c7565b82525050565b612126816129b5565b82525050565b612135816129d9565b82525050565b6000612146826128b7565b61215081856128cd565b9350612160818560208601612a4a565b61216981612c16565b840191505092915050565b600061217f826128c2565b61218981856128de565b9350612199818560208601612a4a565b6121a281612c16565b840191505092915050565b60006121b8826128c2565b6121c281856128ef565b93506121d2818560208601612a4a565b80840191505092915050565b60006121eb6032836128de565b91506121f682612c27565b604082019050919050565b600061220e6025836128de565b915061221982612c76565b604082019050919050565b6000612231601c836128de565b915061223c82612cc5565b602082019050919050565b60006122546024836128de565b915061225f82612cee565b604082019050919050565b60006122776019836128de565b915061228282612d3d565b602082019050919050565b600061229a602c836128de565b91506122a582612d66565b604082019050919050565b60006122bd6015836128de565b91506122c882612db5565b602082019050919050565b60006122e06017836128de565b91506122eb82612dde565b602082019050919050565b60006123036038836128de565b915061230e82612e07565b604082019050919050565b6000612326602a836128de565b915061233182612e56565b604082019050919050565b60006123496029836128de565b915061235482612ea5565b604082019050919050565b600061236c602e836128de565b915061237782612ef4565b604082019050919050565b600061238f6020836128de565b915061239a82612f43565b602082019050919050565b60006123b26031836128de565b91506123bd82612f6c565b604082019050919050565b60006123d5602c836128de565b91506123e082612fbb565b604082019050919050565b60006123f8602f836128de565b91506124038261300a565b604082019050919050565b600061241b6021836128de565b915061242682613059565b604082019050919050565b600061243e6014836128de565b9150612449826130a8565b602082019050919050565b60006124616031836128de565b915061246c826130d1565b604082019050919050565b61248081612a31565b82525050565b600061249282856121ad565b915061249e82846121ad565b91508190509392505050565b60006020820190506124bf600083018461211d565b92915050565b60006020820190506124da600083018461210e565b92915050565b60006080820190506124f5600083018761211d565b612502602083018661211d565b61250f6040830185612477565b8181036060830152612521818461213b565b905095945050505050565b6000608082019050612541600083018761211d565b61254e6020830186612477565b61255b6040830185612477565b818103606083015261256d8184612174565b905095945050505050565b600060208201905061258d600083018461212c565b92915050565b600060208201905081810360008301526125ad8184612174565b905092915050565b600060208201905081810360008301526125ce816121de565b9050919050565b600060208201905081810360008301526125ee81612201565b9050919050565b6000602082019050818103600083015261260e81612224565b9050919050565b6000602082019050818103600083015261262e81612247565b9050919050565b6000602082019050818103600083015261264e8161226a565b9050919050565b6000602082019050818103600083015261266e8161228d565b9050919050565b6000602082019050818103600083015261268e816122b0565b9050919050565b600060208201905081810360008301526126ae816122d3565b9050919050565b600060208201905081810360008301526126ce816122f6565b9050919050565b600060208201905081810360008301526126ee81612319565b9050919050565b6000602082019050818103600083015261270e8161233c565b9050919050565b6000602082019050818103600083015261272e8161235f565b9050919050565b6000602082019050818103600083015261274e81612382565b9050919050565b6000602082019050818103600083015261276e816123a5565b9050919050565b6000602082019050818103600083015261278e816123c8565b9050919050565b600060208201905081810360008301526127ae816123eb565b9050919050565b600060208201905081810360008301526127ce8161240e565b9050919050565b600060208201905081810360008301526127ee81612431565b9050919050565b6000602082019050818103600083015261280e81612454565b9050919050565b600060208201905061282a6000830184612477565b92915050565b600061283a61284b565b90506128468282612aaf565b919050565b6000604051905090565b600067ffffffffffffffff8211156128705761286f612be7565b5b61287982612c16565b9050602081019050919050565b600067ffffffffffffffff8211156128a1576128a0612be7565b5b6128aa82612c16565b9050602081019050919050565b600081519050919050565b600081519050919050565b600082825260208201905092915050565b600082825260208201905092915050565b600081905092915050565b600061290582612a31565b915061291083612a31565b9250827fffffffffffffffffffffffffffffffffffffffffffffffffffffffffffffffff0382111561294557612944612b5a565b5b828201905092915050565b600061295b82612a31565b915061296683612a31565b92508261297657612975612b89565b5b828204905092915050565b600061298c82612a31565b915061299783612a31565b9250828210156129aa576129a9612b5a565b5b828203905092915050565b60006129c082612a11565b9050919050565b60006129d282612a11565b9050919050565b60008115159050919050565b60007fffffffff0000000000000000000000000000000000000000000000000000000082169050919050565b600073ffffffffffffffffffffffffffffffffffffffff82169050919050565b6000819050919050565b82818337600083830152505050565b60005b83811015612a68578082015181840152602081019050612a4d565b83811115612a77576000848401525b50505050565b60006002820490506001821680612a9557607f821691505b60208210811415612aa957612aa8612bb8565b5b50919050565b612ab882612c16565b810181811067ffffffffffffffff82111715612ad757612ad6612be7565b5b80604052505050565b6000612aeb82612a31565b91507fffffffffffffffffffffffffffffffffffffffffffffffffffffffffffffffff821415612b1e57612b1d612b5a565b5b600182019050919050565b6000612b3482612a31565b9150612b3f83612a31565b925082612b4f57612b4e612b89565b5b828206905092915050565b7f4e487b7100000000000000000000000000000000000000000000000000000000600052601160045260246000fd5b7f4e487b7100000000000000000000000000000000000000000000000000000000600052601260045260246000fd5b7f4e487b7100000000000000000000000000000000000000000000000000000000600052602260045260246000fd5b7f4e487b7100000000000000000000000000000000000000000000000000000000600052604160045260246000fd5b6000601f19601f8301169050919050565b7f4552433732313a207472616e7366657220746f206e6f6e20455243373231526560008201527f63656976657220696d706c656d656e7465720000000000000000000000000000602082015250565b7f4552433732313a207472616e736665722066726f6d20696e636f72726563742060008201527f6f776e6572000000000000000000000000000000000000000000000000000000602082015250565b7f4552433732313a20746f6b656e20616c7265616479206d696e74656400000000600082015250565b7f4552433732313a207472616e7366657220746f20746865207a65726f2061646460008201527f7265737300000000000000000000000000000000000000000000000000000000602082015250565b7f4552433732313a20617070726f766520746f2063616c6c657200000000000000600082015250565b7f4552433732313a206f70657261746f7220717565727920666f72206e6f6e657860008201527f697374656e7420746f6b656e0000000000000000000000000000000000000000602082015250565b7f4572726f722c2077726f6e6720546f6b656e2069640000000000000000000000600082015250565b7f4572726f722c20546f6b656e20636f737473206d6f7265000000000000000000600082015250565b7f4552433732313a20617070726f76652063616c6c6572206973206e6f74206f7760008201527f6e6572206e6f7220617070726f76656420666f7220616c6c0000000000000000602082015250565b7f4552433732313a2062616c616e636520717565727920666f7220746865207a6560008201527f726f206164647265737300000000000000000000000000000000000000000000602082015250565b7f4552433732313a206f776e657220717565727920666f72206e6f6e657869737460008201527f656e7420746f6b656e0000000000000000000000000000000000000000000000602082015250565b7f45524337323155524953746f726167653a2055524920736574206f66206e6f6e60008201527f6578697374656e7420746f6b656e000000000000000000000000000000000000602082015250565b7f4552433732313a206d696e7420746f20746865207a65726f2061646472657373600082015250565b7f45524337323155524953746f726167653a2055524920717565727920666f722060008201527f6e6f6e6578697374656e7420746f6b656e000000000000000000000000000000602082015250565b7f4552433732313a20617070726f76656420717565727920666f72206e6f6e657860008201527f697374656e7420746f6b656e0000000000000000000000000000000000000000602082015250565b7f4552433732314d657461646174613a2055524920717565727920666f72206e6f60008201527f6e6578697374656e7420746f6b656e0000000000000000000000000000000000602082015250565b7f4552433732313a20617070726f76616c20746f2063757272656e74206f776e6560008201527f7200000000000000000000000000000000000000000000000000000000000000602082015250565b7f4572726f722c20546f6b656e20697320736f6c64000000000000000000000000600082015250565b7f4552433732313a207472616e736665722063616c6c6572206973206e6f74206f60008201527f776e6572206e6f7220617070726f766564000000000000000000000000000000602082015250565b613129816129b5565b811461313457600080fd5b50565b613140816129d9565b811461314b57600080fd5b50565b613157816129e5565b811461316257600080fd5b50565b61316e81612a31565b811461317957600080fd5b5056fea26469706673582212204e864da53fa6812ac48ae33b9ce875dac302b42558af43f219d4f85d54662d2b64736f6c63430008040033",
    "linkReferences": {},
    "deployedLinkReferences": {}
}